:020000040800F2
:10000000180500209D010008912C0008C92900084E
:100010008D2C0008F50F0008F12F000800000000EB
:10002000000000000000000000000000992C000803
:10003000F90F000800000000952C00089D2C000816
:10004000B7010008B7010008B7010008B7010008B0
:10005000B7010008B7010008B7010008B7010008A0
:10006000B7010008B7010008B7010008B701000890
:10007000B7010008B7010008B7010008B701000880
:10008000B7010008B7010008B7010008B701000870
:10009000B7010008B7010008B7010008B701000860
:1000A000B7010008B7010008B7010008B701000850
:1000B000B7010008B7010008B7010008B701000840
:1000C000B7010008B7010008B7010008B701000830
:1000D000B7010008B7010008E52F0008B7010008C4
:1000E000B7010008B7010008B7010008B701000810
:1000F000B7010008B7010008B7010008B701000800
:10010000B7010008B7010008B7010008B7010008EF
:10011000B7010008B7010008B7010008B7010008DF
:10012000B7010008B7010008B7010008B7010008CF
:10013000B7010008B7010008B7010008B7010008BF
:10014000B7010008B7010008B7010008B7010008AF
:10015000B7010008B7010008B7010008B70100089F
:10016000B7010008B7010008B7010008B70100088F
:10017000B7010008B7010008B7010008000000003F
:10018000B7010008B7010008DFF80CD000F0C4FC8C
:1001900000480047F52F0008180500200648804752
:1001A00006480047FEE7FEE7FEE7FEE7FEE7FEE75C
:1001B000FEE7FEE7FEE7FEE7A12C00088901000844
:1001C0002DE9F05F0546002092469B46884606468C
:1001D000814640241BE0284641464746224600F01F
:1001E00077FA53465A46C01A914110D31146184621
:1001F000224600F05EFA2D1A67EB01084F462246B0
:100200000120002100F055FA17EB00094E41201E95
:10021000A4F10104DFDC484631462A464346BDE8E6
:10022000F09FA0F16101192900D820387047D2B29F
:1002300001E000F8012B491EFBD270470022F6E7CF
:1002400010B513460A4604461946FFF7F0FF20464C
:1002500010BD30B505462A460B4612F8010B13F8BF
:10026000014B08B1A042F8D01CB1002802D06D1C8F
:10027000F1E7284630BD421C10F8011B0029FBD1D4
:10028000801A704770B50F4D00B92868002412E03D
:100290000A4602E09E4203D0521C1378002BF9D18B
:1002A000DAB2224305D02BB124B1002100F8011BA2
:1002B00004E00446401C0678002EE9D12860204660
:1002C00070BD0000000000200FB400B58DB010A973
:1002D00009900B9000914FF0FF300A9000200C9095
:1002E00005480690054807906A4609A80F9900F04E
:1002F00005FA0DB05DF814FB190700083707000870
:100300002DE9FF4F087883B09946FF2805D0491C96
:100310002D2804D00024002008E000200BE0012458
:10032000F9E700EB800003EB4000491C0B78FF2B42
:10033000F7D104B1404200230293147819461D46B8
:100340002D2C01D02B2C04D1521C2D2C13D0002489
:100350000294AA461478FF2C0FD00A25A3FB057837
:1003600001FB05814FF0000C03FB0C11521CE3193B
:100370004AEB0101EEE70124EAE7814453EA010078
:1003800002D019F5C87F06DA03980021C0E90011F0
:1003900007B0BDE8F08F0025AE4E2F46DFF8B882DB
:1003A000184600F061FBCDE90001B9F1000002DA66
:1003B000C9F1000400E004460023A74A1AEB030B2E
:1003C00042EB045A12E0E00707D02A46334638468B
:1003D000414600F068FA074688462A4633461046EA
:1003E000194600F060FA05460E466410002CEAD16A
:1003F000DDE90001B9F1000F5A46534606DA00F074
:10040000C4FA3A46434600F0C0FA05E000F04BFA61
:100410003A46434600F047FA029A0AB181F0004199
:10042000039AC2E90001B3E72DE9FF4F1F468DB0E3
:10043000D7E901464FF0FF382E2045464FF000091E
:100440000B90B9696D1C0E988847396A82468847B7
:100450000028F6D1BAF1FF3F0AD024F4D064002E70
:1004600011DDBAF12B0F08D0BAF12D0F0BD102E03C
:10047000404611B08DE744F48064B9696D1C0E9854
:1004800088478246761E6946600501D52D2000E02A
:100490002B208DF8000001F1010B0DF1200809E07F
:1004A000B9696D1C0E98884782460F9844F4007411
:1004B000761E0560002E02DDBAF1300FF0D00B99E8
:1004C0008A453ED144F0800406E00F99681CA9F1EA
:1004D000010944F400740860B9696D1C761E0E9819
:1004E000884782463028F0D02BE00B998A4505D109
:1004F000200603D444F08004761E18E0504604F031
:10050000E7F808B30DF11302761EAAF1300044F4A7
:100510000074934506D20BF8010B200607D5A9F10C
:10052000010003E0200602D409F101008146A00584
:1005300002D50F99681C0860B9696D1C0E98884730
:100540008246002ED1DC53E0002E51DDBAF1650F5A
:1005500002D0BAF1450F4BD1A00549D5B9696D1C40
:1005600024F44074761E0E9888478246002E0CDDD7
:100570002B2804D0BAF12D0F07D144F48074B96947
:100580006D1C0E9888478246761EE00501D52D2108
:1005900000E02B2108F8011BCDF82C8021E00DF1A3
:1005A0002901761E44F4007488450CD2AAF130006B
:1005B00010F0FF0088F8000002D10B99884509D996
:1005C00008F1010806E0E00501D5244801E042F207
:1005D0000F708146B9696D1C0E98884782460F9846
:1005E0000560002E04DD504604F072F80028D6D1D4
:1005F000F9690E988847FF208BF8000088F8000002
:100600000020069007904B466A4608A906A8FFF707
:1006100077FEA00502D46FF001002AE714F0240F42
:100620000AD0E00714D1DDE906123868031D3B60EB
:100630000068C0E900120BE0DDE9060100F050FAA5
:100640000146E00704D13868021D3A600068016085
:1006500028460EE7000014400000F03FF1D8FFFFED
:1006600000F0004230F000400AD0C10D01F5607189
:10067000C0F3160042EA0151C20840071143704717
:1006800000200146704730B50B460146002020226D
:10069000012409E021FA02F59D4205D303FA02F58F
:1006A000491B04FA02F52844151EA2F10102F1DCEF
:1006B00030BD202A04DB203A00FA02F10020704706
:1006C0009140C2F1200320FA03F319439040704790
:1006D000202A04DB203A21FA02F00021704721FA97
:1006E00002F3D040C2F120029140084319467047FE
:1006F000026811441378016018467047D1600449BC
:1007000051610449116200211161114600F034BAAF
:10071000F10600086D0B0008426842B1016811F84B
:10072000013B23B1521EC0E9001218467047012157
:10073000C160881E704742685AB1C368016843B9F6
:1007400083688B4205D0491E521CC0E9001200206C
:1007500070474FF0FF3070472DE9FE4F804681EA29
:100760000300C00F0C46009021F0004123F000452B
:10077000B8EB0200A94105D24046214690461C46EE
:100780000B46024623F00040104347D0270DC7F325
:100790000A00C3F30A510290401A019040286BDA14
:1007A000C3F3130040F4801B0098924620B100234D
:1007B000D2EB030A63EB0B0B01985946C0F14002E0
:1007C0005046FFF776FF06460D4650465946019AB9
:1007D00000F0BAF910EB08006141002487EA1152D9
:1007E00084EAE7731A4340D0009A62B3019A012A5F
:1007F0004FEA075215DC001B61EB02014FF000428B
:1008000002EA0752CDE90042001C41F58011324650
:100810002B4600F08DFB03B0BDE8F08F404621462B
:10082000F9E7001B61EB0201001C41F58013001881
:100830005B412018A2F5001747EB030140EAD57091
:10084000B6196D4111E06D084FEA360645EAC075EC
:100850004FEA0752001B61EB0201001C41F58011B9
:1008600049084FEA30000019514132462B4603B087
:10087000BDE8F04F00F04DBB00980122400000237E
:10088000D0EB020263EBE073009821464FEAE0747C
:10089000B8EB000061EB0401E9E783F000435BE79C
:1008A00081F0004158E72DE9FE4F81EA030404F08E
:1008B000004421F0004100944FF0000B23F000436E
:1008C00050EA01045ED052EA03045BD0C3F30A5439
:1008D000C1F30A552C44A4F2F3340194A0FB025452
:1008E000C1F3130141F48011C3F3130343F48013E4
:1008F00001FB024400FB034E840A970A44EA815438
:1009000047EA8357A4FB076802958D0A05FB078514
:100910004FEA932C04FB0C542705029D4FEA06581E
:1009200047EA1637B5EB08056EEB070C870E920EFB
:1009300047EA811742EA8312A7FB0201B6EB0B01DB
:1009400064EB00042B0D43EA0C335E1844EB1C509F
:10095000DA465146E7FB0201C5F313044FEA0B33B5
:1009600043EA14534FEA0432019C43EA0603A4F11C
:100970000C040294009CCDE900B400F0D9FA03B055
:10098000BDE8F08F00200146F9E72DE9F04D81EA3E
:10099000030404F0004B21F0004514464FF0000A18
:1009A00023F0004150EA050220D054EA01021DD094
:1009B000C5F30A570246C5F31303C1F31300C1F38D
:1009C0000A5640F4801543F48013A7EB0608101B69
:1009D000D64608F2FD3873EB050002D308F1010892
:1009E00001E092185B41B8F1000F03DA00200146E4
:1009F000BDE8F08D00204FF48011064684460EE0DD
:100A0000171B73EB050705D3121B63EB05030643A6
:100A10004CEA010C49084FEA300092185B4150EA59
:100A20000107EDD152EA030012D082EA040083EA02
:100A30000501084305D0101BAB4106D2012200235B
:100A400006E000224FF0004302E06FF00102531075
:100A50001AEB06004CEB085110EB0A0041EB0B01BE
:100A6000BDE8F04D00F055BA0EB540F233420292A7
:100A70000022CDE90022134600F05AFA03B000BD6F
:100A8000C1F30A52C1F3130140F2FF3341F4801164
:100A90009A4202DA00200146704740F233439A42FC
:100AA000A2F2334202DC5242FFF712BEFFF701BE50
:100AB00030B5041E71F1000404DB4FF000444042E5
:100AC00064EB0101141E73F1000405DB1C464FF0BA
:100AD0000043524263EB0403994208BF904230BD89
:100AE00001F0004330B421F0004150EA010206D089
:100AF0000A0DA2F56072C1F31301002A02DC30BCBA
:100B000000207047440F44EAC104C100E01830BC23
:100B100000EBC25000F0C6B91CB509480090094866
:100B200001900546009C06E0E06840F0010394E86F
:100B3000070098471034AC42F6D3FFF729FB0000BA
:100B40001C5000083C500008202A06DBCB17203A36
:100B500041FA02F043EAE07306E041FA02F3D040C2
:100B6000C2F120029140084319467047C0B24FF4C9
:100B7000F05100F02BBA00002DE9F34F8BB04FF08D
:100B8000000801F10C000C464FF0010B46460DF138
:100B9000080A01906269012101989047051E2DD035
:100BA000252D2CD0216A8847C0B1626901210198A6
:100BB0009047216A88470028F7D1411E6269019851
:100BC000904700E0761CA1690B988847216A884706
:100BD0000028F7D1E1690B988847DBE7A1690B98FA
:100BE00088470746A84201D1761CD3E7E1690B98F4
:100BF00088477F1C02D1B8F1000F6FD046E1002773
:100C000062693D463946019890472A2804D16269B5
:100C10000121019890470125DFF884926269012142
:100C200001989047A0F130010A290AD24F45E5DC2E
:100C300007EB870100EB4107303FDFD445F010059B
:100C4000ECE7E90601D46FF000476C280AD04C2885
:100C500014D0682815D06A280DD074281CD07A28A2
:100C60001AD01DE062690121019890476C2802D0DA
:100C700045F0040514E045F002050DE045F02005BF
:100C80000AE06269012101989047682802D045F086
:100C9000080505E045F40065626901210198904767
:100CA000C4E9015765283DD019DC58287AD00CDCFE
:100CB000452837D004DC252826D0412831D131E021
:100CC00046282FD047282CD12CE05B2877D06128EC
:100CD00028D063287CD0642823D15AE0D0E06F2844
:100CE00048D008DC66281DD067281BD0692821D091
:100CF0006E2816D127E0702845D0732868D0752853
:100D000047D078280DD14DE0A1690B98884705465A
:100D100025283FF469AFE1690B9888476D1C3FF4C3
:100D20006AAFB3E023466A466FF001000B99FFF704
:100D30007BFB9EE045F040006060A80723464FF033
:100D4000000236D43EE0E8077FF447AF2068011D7B
:100D500021600068290501D506701BE7290701D528
:100D6000068017E7A90703D5F117C0E9006111E76D
:100D700006600FE745F040006060A80723464FF08B
:100D8000080216D41EE040F60E0125EA010060605C
:100D900016E045F040006060A80723464FF00A02C5
:100DA00007D40FE045F040006060A80708D523464F
:100DB00010226FF001000B99AFF3008059E007E0BB
:100DC000234610226FF001000B99AFF3008050E032
:100DD0004FF000094F464B46632802D05B2806D0EF
:100DE00040E0E80601D40120A06001273AE06269F2
:100DF0000121019890475E2805D14FF001096269F1
:100E0000494601989047216939B900210A4653465D
:100E100043F82120491C0829FADBB0B3216969B9DC
:100E2000C11700EBD16253110AEB830122F01F02BC
:100E3000821A01200B68904003430B606269012114
:100E4000019890475D28E8D1B9F1000F09D0002042
:100E5000514651F82020D24341F82020401C082858
:100E6000F7DB02AB224600976FF001000B99AFF35E
:100E7000008000280CDA401C08D1BBF1000F05D01F
:100E80004FF0FF300DB0BDE8F08FFFE74046F9E7C7
:100E9000E90701D108F1010806444FF0000B79E69B
:100EA000CCCCCC0C0029A8BF7047401C490008BF1F
:100EB00020F00100704710B4B0FA80FC00FA0CF08A
:100EC00050EA010404BF10BC704749B1CCF12004C2
:100ED00021FA04F411FA0CF118BF0121214308434F
:100EE000A3EB0C01CB1D4FEA00614FEA102042BF7B
:100EF000002010BC704700EBC35010440029A4BF71
:100F000010BC7047401C490008BF20F0010010BC15
:100F1000704710B5141E73F1000408DA401C41F14B
:100F2000000192185B411A4301D120F0010010BD6D
:100F30002DE9F04D92469B4611B1B1FA81F202E0E3
:100F4000B0FA80F220329046FFF7B3FB04460F461A
:100F500040EA0A0041EA0B0153465A46084313D0BF
:100F6000114653EA010019D0C8F140025046FFF77C
:100F7000AFFB05460E46504659464246FFF799FBE1
:100F8000084305D0012004E020463946BDE8F08D35
:100F90000020054346EAE0762C4337430A98630570
:100FA000E40AA0EB08000022FD0A44EA47540A3094
:100FB00002D500200146E9E7010510196941DDE984
:100FC000084500196941BDE8F04DA2E77F2801D925
:100FD000002208E0064A02EB5002C007127800D156
:100FE000120902F00F0201209040084070470000F3
:100FF000844E0008FEE700007047000072B600BF94
:10100000FEE7000070B5866D044600F041F994F8E3
:101010003510022928D105462068216C026822F08B
:1010200016020260426922F08002426109B9A16C95
:1010300019B1016821F008010160016821F0010186
:10104000016000BF20680068C00715D000F020F9DB
:10105000401B0628F6D320206065032084F8350065
:10106000002184F8341070BD8020606501200021CB
:1010700084F8341070BD00BFE06D3F2101FA00F02C
:10108000B060012084F835000020002184F834107D
:1010900070BD000090F83510022909D1052180F8B3
:1010A00035100068016821F00101016000207047DF
:1010B0008021416501207047B0B5044600F0E8F892
:1010C000054640F22000C2F200000078611C18BF03
:1010D000044400BF00F0DCF8401BA042FAD3B0BDCE
:1010E0002DE9F04F83B000F1200200F13E4741F6B8
:1010F0000045009207F1FF77C4F2020508224FEA8B
:10110000B726A84208BF072200254FF000084FF07D
:101110000009072E38BF4FEAB72201920AE000BF4C
:1011200009F1010908F10208B9F1100F05F10405F0
:1011300000F0A2800F68012202FA09FE17EA0E0AE7
:10114000EED0D1F804C003220CF003077E1E02FA91
:1011500008F4012E6FEA040B12D88468CE6804EA02
:101160000B0406FA08F634438460446824EA0E0649
:10117000CCF3001404FA09F42643466004E000BFEF
:10118000032F01D103271EE0C6688C6806EA0B0610
:1011900004FA08F42643022FC66014D16FF003024C
:1011A000009E02EA590756F807C005F01C040F22FA
:1011B0000B69A2402CEA0202A3401A43F251D1F873
:1011C00004C00CF00307026807FA08F302EA0B02F6
:1011D0001A431CF4403F0260A2D0002243F64403AD
:1011E0000292C4F202031A6843F6004442F48042B9
:1011F0001A601A68C4F2010402F480420292029A50
:1012000029F003024FF6084C2244CFF6FF7C52F837
:101210000C3005F00C070F26BE40B343019E06FAC2
:1012200007F73B4342F80C30A2684B6842EA0A07D2
:1012300043F60C4CDE0258BF22EA0A07A760C4F24C
:10124000010CDCF800209E0242EA0A0758BF22EA9D
:101250000A07CCF8007062689E0342EA0A0758BF8A
:1012600022EA0A0767602268DB0342EA0A0758BFDE
:1012700022EA0A07276053E703B0BDE8F08F0000B9
:10128000426902EA0103914341EA034181617047E7
:1012900040F21010C2F200000068704740F22000D7
:1012A00040F21011C2F20000C2F2000100780A6898
:1012B000104408607047000080B543F60040C4F257
:1012C0000200016841F400710160016841F480612D
:1012D0000160016841F480710160032000F086F82C
:1012E0000F2000F005F800F027F8002080BD000076
:1012F00070B540F22006C2F2000640F228013278B2
:10130000C2F200014FF47A730968B3FBF2F20446AB
:10131000B1FBF2F1084600F061FB0F2C4FF0010524
:1013200008D838B94FF0FF3021460022002500F0E0
:1013300031F87460284670BD82B0002043F6400149
:101340000190C4F202014A6842F480424A604A684D
:1013500002F480420192019A0090086840F08050A7
:101360000860086800F080500090009802B0704754
:10137000002848BF704700F01F01012202FA01F166
:101380001C2202EAD0004EF20012CEF2000281507E
:101390007047000010B54EF60C5CCEF2000CDCF885
:1013A0000030C3F3022E8EF00704042C28BF04245F
:1013B000BEF103034FF0FF3E0EFA04F438BF0023E2
:1013C000A14399400EFA03F39A43114300F00F0230
:1013D00000F160430901043A03F5644362440028C4
:1013E00048BF02F10C03197010BD00004EF60C51FD
:1013F000CEF200010A684FF6FF031A4060F30A229A
:1014000042F0806040F0FD7008607047002804BF23
:10141000012070472DE9F04143F60808C4F20208A4
:101420000446D8F8F8030D4600F00700814207D9BA
:1014300088F8F853D8F8F80300F00700A84277D1ED
:101440002068810717D5410705D5D8F8001041F469
:10145000E051C8F80010010705D5D8F8001041F494
:101460006041C8F80010D8F80010A26821F0F0011F
:101470001143C8F80010C00740D1D8F8F80300F0B5
:101480000700854207D288F8F853D8F8F80300F02F
:101490000700A8424CD12068410707D5D8F80010B2
:1014A000E26821F4E0511143C8F80010000708D5A4
:1014B000D8F80000216920F4604040EAC100C8F873
:1014C000000000F07DF8D8F8001044F6C462C1F3C3
:1014D0000311C0F60002515C40F2280220FA01F12B
:1014E00040F22400C2F200000068C2F20002116063
:1014F000FFF7FEFE0020BDE8F08100BF6068811E9E
:10150000022907D258F8081C89015CBF0120BDE8F8
:10151000F08111E0012807D158F8081C89035CBF4D
:101520000120BDE8F08107E058F8081C890703D4C2
:101530000120BDE8F08100BFD8F8001021F00301C0
:101540000843C8F80000FFF7A3FE064641F28837BB
:10155000D8F80000616800F00C00B0EB810F8CD06F
:10156000FFF796FE801BB842F2D90320BDE8F08158
:1015700040F2280043F60801C2F20000C4F2020162
:101580000068096844F6D462C1F38221C0F6000203
:10159000515CC8407047000040F2280043F6080143
:1015A000C2F20000C4F202010068096844F6D46285
:1015B000C1F34231C0F60002515CC84070470000E0
:1015C00010B543F60404C4F202046168C1F381015A
:1015D00042F20040C0F2F400DFE801F002040A0227
:1015E00010BD00BF41F20020C0F27A0010BD00BF64
:1015F000216801F03F02216823684902C3F3881182
:1016000006D4A1FB00010023FEF7DAFD07E000BFCE
:1016100041F20020C0F27A004843B0FBF2F02168AA
:101620000222C1F3014102EB4101B0FBF1F010BD18
:10163000002804BF012070472DE9F04182B0044624
:10164000007843F60006C007C4F202060CD0B0686A
:1016500000F00C00042840F081803068800303D53E
:101660006068002800F06881207880071BD5B0688A
:1016700010F00C0F09D0B06800F00C00082840F002
:1016800087807068400200F183803068800703D54E
:10169000E068012840F050813068216920F0F800AE
:1016A00040EAC10030602078000713D4207840075A
:1016B0002AD4A569002D00F03A81B06800F00C0032
:1016C000082840F0A580012D40F00E81012002B0D5
:1016D000BDE8F0816069002800F082800020C4F23B
:1016E00047200121C0F8801EFFF7D2FD054600BF4C
:1016F000706F8007DAD4FFF7CBFD401B0228F7D9C3
:10170000032002B0BDE8F081306C5FEAC0080AD463
:1017100000200190306C40F080503064306C00F05C
:1017200080500190019847F20007C4F20007386822
:10173000C00547D4386840F480703860FFF7A8FDD2
:10174000054600BF3868C0053CD4FFF7A1FD401B2B
:101750000228F7D9032002B0BDE8F081B06800F09C
:101760000C00082803D1706840023FF576AF61682D
:101770003068B1F5803F07D0B1F5A02F40F09A80D6
:1017800040F480203060306840F4803030609AE06F
:10179000E068002840F20000C4F247205CD001213C
:1017A0000160FFF775FD0546306880073FF574AFAF
:1017B000FFF76EFD401B0228F6D9032002B0BDE8FA
:1017C000F08100BFA168306F012905D0052955D1EE
:1017D00040F004003067306F40F00100306756E0A1
:1017E0000020C4F247200021C0F8801EFFF750FD02
:1017F000054600BF706F80077FF558AFFFF748FDC3
:10180000401B0228F6D9032002B0BDE8F08100BFDA
:101810000027C4F2472700203866FFF739FD022D64
:1018200005460DD13068800140F18A80FFF730FD18
:10183000401B02284FF00300F4D902B0BDE8F0814C
:101840003068800173D5FFF723FD401B02284FF05D
:101850000300F5D9F1E700BF00210160FFF718FD93
:10186000054600BF306880077FF51DAFFFF710FD0C
:10187000401B02284FF00300F4D9DEE720F00100FE
:101880003067306F002920F0040030677AD0FFF70E
:10189000FFFC054641F28837306F800700F18480F5
:1018A000FFF7F6FC401BB842F6D9032002B0BDE8B2
:1018B000F08100BF20F4803030603068002920F4CF
:1018C000802030607AD0FFF7E3FC05463068800363
:1018D0003FF5CAAEFFF7DCFC401B6428F6D90320B5
:1018E00002B0BDE8F08100BF7068E16900F48002D9
:1018F0008A4221D1216A00F03F028A421CD147F678
:10190000C071626A0140B1EB821F15D1A16A4FF626
:10191000FF73C903994300F44032A1F580318A4234
:101920000AD1E16A00F07060B0EB016F04D10020D1
:1019300002B0BDE8F08100BF012002B0BDE8F08137
:1019400004F11C052FCD084340EA8210D9034FF65D
:10195000FF729143A1F5803140EA05600843706051
:1019600001203866FFF794FC044600BF3068800110
:10197000DDD4FFF78DFC001B02284FF00300F5D9E2
:101980005BE700BFFFF784FC054641F2883700BFE4
:10199000306F800708D5FFF77BFC401BB8424FF043
:1019A0000300F5D949E700BFB8F1000F3FF581AE5C
:1019B000306C20F0805030647BE600BFFFF768FC9D
:1019C000054600BF306880037FF54EAEFFF760FC30
:1019D000401B64284FF00300F4D92EE7411E00207D
:1019E000B0EB116F1CBF012070474EF21002CEF217
:1019F000000251604EF62351CEF20001F0230B702D
:101A0000072190601160704790F83C20012A04BFC4
:101A100002207047B0B501F108053CCDD1E900CEF8
:101A200023F47C5322F470521A432EF4F0431A43E9
:101A30002CF4E0431A4324F4C0431A432A43C969EF
:101A400022F48042036811435964002180F83C105D
:101A50000020B0BD90F83C20012A4FF0020254D083
:101A600010B580F83D200268D2F804E0D2F808C032
:101A70000C682EF07003234341F2FF74C4F200049B
:101A8000A24253600EDC40F2FF73C4F200039A429C
:101A900016DCB2F1804F2BD040F20043C4F20003B9
:101AA00024E000BF40F2FF33C4F201039A4213DC8A
:101AB00041F60003C4F200039A4219D0002313E058
:101AC00040F60003C4F200039A4211D040F60043EE
:101AD000C4F200030AE000BF44F20003C4F20103B1
:101AE0009A4205D040F20043C4F201039A4204D165
:101AF00049682CF08003194391600121002280F88D
:101B00003D1080F83C20BDE81040104670470000B2
:101B1000002804BF0120704710B5044690F83D002E
:101B200028B9002084F83C00204600F01FF802206D
:101B300084F83D002068211D01F0BCF8012084F8E4
:101B4000460084F83E0084F83F0084F8400084F8A2
:101B5000410084F8420084F8430084F8440084F88B
:101B6000450084F83D00002010BD00000068002101
:101B7000C4F20101884218BF704781B00020009074
:101B800043F64400C4F20200016841F00101016023
:101B9000006800F001000090009801B0704700005C
:101BA00090F83C20012A4FF002026CD080B580F8FA
:101BB0003D20D0F800C04FF67772DCF8083023EAF9
:101BC0000202CCF808200B684F2B29DC1F2B45DDC7
:101BD000202B46D0302B44D0402B40F0AF80D1F8A2
:101BE00004E0C968DCF82030DCF8202022F0010293
:101BF000CCF82020DCF8182022F0F00242EA011193
:101C000023F00A0242EA0E02CCF81810CCF8202089
:101C1000DCF8081041F0470121F0300128E000BF56
:101C20006F2B33DDB3F5005F74D0B3F5805F21D047
:101C3000702B40F08380D1E901E3C968DCF808200B
:101C400043EA0E0322F47F4243EA01211143CCF818
:101C50000810DCF8081041F0770109E00BB1102BF7
:101C60006CD1DCF8081021F07001194341F0070134
:101C7000CCF808100022012180F83D10002180F8E6
:101C80003C10BDE880401046704700BF502B21D06B
:101C9000602B53D1D1F804E0C968DCF82030DCF8BF
:101CA000202022F01002CCF82020DCF8182022F4AA
:101CB000704242EA013123F0A00242EA0E12CCF84F
:101CC0001810CCF82020DCF8081041F0670121F052
:101CD0001001CDE7D1F804E0C968DCF82030DCF869
:101CE000202022F00102CCF82020DCF8182022F07D
:101CF000F00242EA011123F00A0242EA0E02CCF895
:101D00001810CCF82020DCF8081041F0570121F021
:101D10002001ADE7D1E901E3C968DCF8082043EA16
:101D20000E0322F47F4243EA01211143CCF808104C
:101D3000DCF8081041F480419AE700BF01229AE7DD
:101D400090F83C30012B04BF022070474FEAB202EA
:101D5000032A00F2FF802DE9F043DFE802F003B12F
:101D60003F7F00BF036840F200461C6A1A6A24F0F5
:101D7000020422F001021A621A46D3F804C052F893
:101D800018EF8F6843F48065C4F20106B54244EA57
:101D9000070405D1CF6824F00C0427F004073C4366
:101DA0000F68B54206D1D1E905582CF440762E4390
:101DB00046EA080C2EF073063743C3F804C09F614F
:101DC0004F6809695F631C629F6947F008079F615C
:101DD0009F6927F004079F61B1E000BF036840F2EC
:101DE00000481C6A1A6A24F4007422F480721A6291
:101DF0001A46D3F804C052F81CEF8F6843F480658C
:101E0000C4F20108454544EA072408D1CF6840F2EE
:101E1000FF463F0224F4406427EA06063443D1F823
:101E20000090454506D1D1E905562CF440572E4384
:101E300047EA061C2EF0730747EA0907C3F804C0F7
:101E4000DF614F680969DF631C62DF6947F00807DB
:101E5000DF61DF6927F00407DF6170E0036840F2AB
:101E60000045D3F820C01A6A43F4806722F48052F8
:101E70001A621A465C6852F81C8FD1F800E08E682E
:101E8000C4F20105AF4204D14D6924F4804444EA10
:101E900085142CF4005747EA063728F4E64646EA4C
:101EA0000E265C60DE614E6809691E641F62DF6990
:101EB00047F40067DF61DF6927F48067DF613DE099
:101EC000036840F200481C6A1A6A24F0200422F0D9
:101ED00010021A621A46D3F804C052F818EF8F683D
:101EE00043F48065C4F20108454544EA071407D16C
:101EF000CF686FF0400624F0C00406EA07163443AA
:101F0000D1F80090454506D1D1E905562CF440673B
:101F10002E4347EA860C2EF4E64747EA0927C3F822
:101F200004C09F614F6809699F631C629F6947F401
:101F300000679F619F6927F480679F6109021368AA
:101F4000194311600021BDE8F043002280F83C20D5
:101F5000084670470121002280F83C20084670475F
:101F6000002804BF0120704710B5044690F83D00DA
:101F700028B9002084F83C00204600F01FF8022019
:101F800084F83D002068211D00F094FE012084F8B3
:101F9000460084F83E0084F83F0084F8400084F84E
:101FA000410084F8420084F8430084F8440084F837
:101FB000450084F83D00002010BD0000704700007F
:101FC000C1B1042908D0082914BF41224022825CF3
:101FD000012A05D016E000BF3F22825C012A11D100
:101FE0000222082910D0042914BF80F8412080F86B
:101FF0003F200BE090F83E20012A03D1022280F816
:102000003E2003E00120704780F84020006801F086
:102010001F010122036A02FA01F123EA01020262AE
:10202000026A114341F2FF72C4F20002904201625F
:102030000CDC40F2FF71C4F20001884214DCB0F104
:10204000804F37D040F2004116E000BF40F2FF3130
:10205000C4F20101884215DC41F60001C4F200011E
:10206000884227D0002115E040F60001C4F20001AB
:1020700088421FD040F60041C4F20001884219D0C6
:102080001FE000BF44F20001C4F20101884211D0F8
:1020900040F20041C4F20101884212D1416C40F289
:1020A000004340F48062C4F2010341F400419A42CB
:1020B000416406D1816801F00701062904BF0020B0
:1020C0007047016841F00101016000207047000085
:1020D00070470000006844F20041C4F200018842E9
:1020E00018BF704740F23001C2F20001002001F831
:1020F000100B40F2C800C2F20000012200F03CBB0D
:10210000B0B582B001680A68CC684B6902F02F054F
:10211000202D04F0200505D125B102B0BDE8B04066
:1021200000F06CBE5FEA027C1EBF03F0010E04F4F7
:10213000907313EB0E0341D1036BD50618D5012B19
:1021400016D114F0100313D0002201920A680192F4
:102150004A680192019A496949064BD4818DC28D22
:10216000C38D002B18BF914240F0068202B0B0BD73
:1021700013062DD514F080032AD090F84120212A8F
:10218000F4D18268B2F5805F03D10269002A00F0C1
:102190007982026A531C036212784A60C28C013A47
:1021A0001304C284E2D1C86820F08000C860C86807
:1021B00040F04000C86002B0B0BD00BFD30718BFF8
:1021C00014F4807340F0E280530700F1E580EAE008
:1021D0005206CBD514F04002C8D0CA6822F04002A3
:1021E000CA60202180F8411002B0BDE8B04000F084
:1021F000E9BB00BFC26B11684B68858D99B200299D
:1022000000F0B480A94280F0B180C385D169B1F5F6
:10221000807F00F0A080016851E8031F026821F46C
:10222000807142E80313DBB1016851E8031F0268C3
:1022300021F4807142E8031393B1016851E8031F50
:10224000026821F4807142E803134BB1016851E840
:10225000031F026821F4807142E80313002BDAD1D6
:10226000016851E8051F026821F0010142E80513E9
:10227000BBB3016851E8051F026821F0010142E883
:10228000051373B3016851E8051F026821F00101CD
:1022900042E805132BB3016851E8051F026821F0DD
:1022A000010142E80513002BDAD11AE0016851E878
:1022B000051F026821F0400142E80513DBB1016807
:1022C00051E8051F026821F0400142E8051393B16F
:1022D000016851E8051F026821F0400142E805133A
:1022E0004BB1016851E8051F026821F0400142E846
:1022F0000513002BDAD1202180F842100021016360
:10230000016851E8031F026821F0100142E803133D
:10231000DBB1016851E8031F026821F0100142E8B7
:10232000031393B1016851E8031F026821F0100103
:1023300042E803134BB1016851E8031F026821F022
:10234000100142E80313002BDAD1C16B04460846A2
:10235000FEF758FE204602214163818DC28D891A05
:1023600089B202B0BDE8B040FFF7B2BE8D427FF443
:10237000FDAED269B2F5807F7FF4F8AE02224263EF
:1023800002B0BDE8B040FFF7A3BE00BF436C43F00E
:1023900001034364530706D5BEF1000F03D0436C1D
:1023A00043F002034364930706D5BEF1000F03D048
:1023B000436C43F004034364BCF1000F06D55EEAAE
:1023C000050303D0436C43F008034364436C002BC4
:1023D0003FF4CCAE920605D525B1044600F00EFDC3
:1023E000216820464969426C01F0400102F0080270
:1023F000891800F0B98000BF016851E8031F026826
:1024000021F4907142E80313BBB3016851E8031F44
:10241000026821F4907142E8031373B3016851E834
:10242000031F026821F4907142E803132BB3016883
:1024300051E8031F026821F4907142E80313002B56
:10244000DAD11AE0016851E8051F026821F00101A4
:1024500042E80513DBB1016851E8051F026821F06D
:10246000010142E8051393B1016851E8051F0268B4
:1024700021F0010142E805134BB1016851E8051F45
:10248000026821F0010142E80513002BDAD1016B4B
:10249000012924D1016851E8031F026821F01001CD
:1024A00042E80313DBB1016851E8031F026821F021
:1024B000100142E8031393B1016851E8031F026859
:1024C00021F0100142E803134BB1016851E8031FEA
:1024D000026821F0100142E80313002BDAD1202119
:1024E00080F842100021016301684969490640F102
:1024F000C380016851E8051F026821F0400142E8ED
:102500000513DBB1016851E8051F026821F04001A5
:1025100042E8051393B1016851E8051F026821F0F4
:10252000400142E805134BB1016851E8051F0268FC
:1025300021F0400142E80513002BDAD1C16B0029DC
:1025400000F09A8042F6F152C0F6000204460846B6
:102550000A65FEF79FFD00283FF408AEE06B016DB1
:1025600002B0BDE8B04008470446FFF7B3FD0020C5
:10257000606402B0B0BD00BF891A00BF026852E8B3
:10258000032F036822F4907243E80325BDB3026869
:1025900052E8032F036822F4907243E8032575B3D1
:1025A000026852E8032F036822F4907243E803257F
:1025B0002DB3026852E8032F036822F4907243E8B7
:1025C0000325002DDAD11AE0026852E8052F0368CE
:1025D00022F0010243E80525DDB1026852E8052F2B
:1025E000036822F0010243E8052595B1026852E82C
:1025F000052F036822F0010243E805254DB102686A
:1026000052E8052F036822F0010243E80525002D5A
:10261000DAD1202280F8422000220263026852E8C8
:10262000032F036822F0100243E80325DDB102689E
:1026300052E8032F036822F0100243E8032595B106
:10264000026852E8032F036822F0100243E80325D2
:102650004DB1026852E8032F036822F0100243E8EC
:102660000325002DDAD1022289B2426302B0BDE80F
:10267000B040FFF72DBD00BF02B0BDE8B040FFF78E
:1026800029BD00BF026A32F8023B6FF35F234B6043
:10269000026283E5002804BF0120704710B504469C
:1026A00090F8410028B9002084F84000204600F04E
:1026B00021F8242084F841002068C16821F40051E9
:1026C000C160204600F01AFC2068016921F49041A5
:1026D0000161416921F02A014161C16841F4005161
:1026E000C16000202021606484F8411084F8421009
:1026F000606310BD80B586B044F200410068C4F24A
:102700000001002288420592CDE903220292019243
:1027100002D006B080BD00BF43F630000092C4F284
:102720000200036943F400330361036903F40033D7
:102730000093009B0092036843F00103036000686C
:1027400000F00100009000980C2001900220CDE9DB
:102750000202032004900720059001F5DE3001A954
:10276000FEF7BEFC262000210022FEF713FE2620E5
:10277000FEF7FEFD06B080BD90F84230202B07D159
:1027800000294FF0010318BF002A05D118467047F1
:1027900002231846704700BF002303638162222191
:1027A0008285C285436480F842100169006819B1CE
:1027B000C16841F48071C160416941F0010141612A
:1027C000C16841F02001C16018467047006844F2BA
:1027D0000041C4F20001884218BF704740F2300C3B
:1027E000C2F2000C9CF80010C8B23E2808D80CEBCE
:1027F0000002127C0D2A01D00A2A15D1090615D033
:1028000060440023037401208CF801005CFA83F01B
:1028100000F1100140F2C800C2F2000001228CF861
:102820000030FFF7A9BF00BF4B1CEFE70023EDE727
:102830002DE9F04381B0044690F84100202809D1E9
:1028400000294FF0010018BF002A07D101B0BDE8F0
:10285000F08300BF022001B0BDE8F0830020606477
:1028600021201D460E4684F841001746FEF710FD54
:10287000A784E784A1688146B1F5805F02D1206911
:1028800000285DD037460020E28C2168002A5DD008
:102890006A1C24D0002D4AD0804600BF086800067C
:1028A00008D4FEF7F5FCA0EB0900A8427AD821680D
:1028B000C868F3E717B117F8010B04E038F8020B0A
:1028C00000276FF35F204860E08C0138E084E08CE3
:1028D0000028E3D13AE000BF0A68120609D40A686A
:1028E000120606D40A6812065CBF0A685FEA026232
:1028F000F2D51FB117F8012B05E000BF30F8022B0D
:1029000000276FF35F224A60E28C013AE284E28C96
:10291000002AE4D11AE000BF30F8022B00276FF341
:102920005F224A60E28C013AE284E28C72B10A686A
:10293000120635D5002FEFD017F8012BF1E700BFB5
:1029400000273046E28C2168002AA1D108684006A1
:102950001ED42DB3681C14D1086840062AD4086818
:10296000400627D40868400624D4086840064FF083
:102970000000F1D50DE000BF2068C1680068400686
:1029800018D4FEF785FCA0EB0900A842F4D909E0B1
:102990000020202184F8411001B0BDE8F08300BF81
:1029A000FEF776FC0320202184F8411001B0BDE839
:1029B000F08300BF0020202184F8411001B0BDE861
:1029C000F083000070470000FEE700002DE9F041B1
:1029D00086B0002643F630000596CDE90366CDE9C2
:1029E00001660096C4F202000168002441F0100163
:1029F00001600168C4F2020401F010010091009925
:102A00000096016801AD41F00401016001680327EF
:102A100001F00401009100990096016841F08001E5
:102A20000160016801F08001009100990096016841
:102A300041F001010160016801F00101009100997C
:102A40000096016841F002010160016801F0020195
:102A5000009100990096016841F00801016000684A
:102A6000294600F00800009000984DF2FF500190B8
:102A700004F58050CDE90276FEF732FB4FF6FF7881
:102A800004F500602946CDE901870396FEF728FB8F
:102A900049F6F370CDE90107204629460396FEF773
:102AA0001FFB04F580602946CDE901870396FEF7F8
:102AB00017FB04F540602946CDE901870396FEF730
:102AC0000FFB06B0BDE8F08170B59CB0002540F268
:102AD0008000C4F201050021C2F20000532244F636
:102AE0001F6380261591CDE913111191CDE90F11C6
:102AF000CDE90D11CDE90B11CDE90911CDE9071192
:102B0000CDE90511CDE90311CDE90111C0E900526C
:102B1000C0E90213C0E904118661FEF7F9FF00283D
:102B200018BFFEF76BFA4FF48050129040F280000D
:102B3000C2F2000012A9FFF733F8002818BFFEF711
:102B40005DFA40F28000C2F20000FFF709FA0028A7
:102B500018BFFEF753FA40F280000024C2F20000D2
:102B600010A9CDE91044FEF775FF002818BFFEF745
:102B700045FA6020099040F2DB50CDE90A0440F2AA
:102B80008000C2F2000009A90022CDE90C44CDE981
:102B90000E44FFF7D5F8002818BFFEF72FFA40F2D1
:102BA0008000C2F2000009A90422FFF7C9F800283A
:102BB00018BFFEF723FA40F28000C2F2000009A914
:102BC0000822FFF7BDF8002818BFFEF717FA40F2F9
:102BD00080044FF40050C2F200040026069001A9C0
:102BE00020460596CDE90366CDE901660896FEF715
:102BF0000BFF002818BFFEF701FA20681B96A842B9
:102C0000CDE919661896179602D01CB070BD00BFAA
:102C1000002043F630011690C4F202010A6842F027
:102C200010020A60096801F01001169116994FF41C
:102C3000285117910221CDE9181001201A911B90FB
:102C400005F5883017A9FEF74BFA1CB070BD0000DF
:102C500080B540F2C80044F20041C2F20000C4F264
:102C6000000100234FF00C0C4FF4165280E80E00C8
:102C7000C0E90333C0E905C3C361FFF70BFD0028BA
:102C800008BF80BDBDE88040FEF7B8B9FEE7000090
:102C9000FEE700007047000070470000FEF7FEBA34
:102CA0004EF68850CEF20000016841F470010160D8
:102CB00070470000B0B540F6FF3E0568C4F2000E54
:102CC00040F2004C7045C4F2010C25DCB0F1804F9D
:102CD0002FD040F20043C4F20003984229D040F6BE
:102CE0000003C4F20003984223D041F6FF73C4F2FC
:102CF0000003984228DC70453ADCB0F1804F5BD08D
:102D000040F20043C4F20003984255D040F600035D
:102D1000C4F200034EE000BF40F60043C4F20003DB
:102D2000984206D0604504D00023C4F201039842C3
:102D3000DBD14B6825F0700243EA020541F6FF73D0
:102D4000C4F200039842D6DD43F6FF73C4F20103D8
:102D500098421FDC42F20003C4F2000398422BD0D9
:102D60000023C4F20103984226D0604524D028E015
:102D700040F60043C4F2000398421DD041F6000320
:102D8000C4F20003984217D041F60043C4F2000396
:102D900010E000BF44F20003C4F2010398420BD0DC
:102DA00044F60003C4F20103984205D044F2004304
:102DB000C4F20103984204D1CB6825F4407243EA7F
:102DC00002050A688C684B69C46240F480648262C0
:102DD000644504BF09690163026825F0800142F07F
:102DE000040219430260012242610160B0BD00008B
:102DF000806B0021C185FFF76DB9000081B090F8AC
:102E00004210222921D183680246B3F5805F09D19F
:102E100052F8281F52F8183C002B63D003685B68F7
:102E20000AE000BF52F8281F13B90369002BF5D040
:102E300003685B6803F07F030B7011680131116058
:102E4000C18D01390A04C18502D001B0704700BFAD
:102E50000168CA6822F02002CA60CA6822F480723F
:102E6000CA604A6922F001024A61202180F84210BA
:102E700000214163026B012A3CD10163016851E8E2
:102E8000031F026821F0100142E80313DBB101685F
:102E900051E8031F026821F0100142E8031393B1C7
:102EA000016851E8031F026821F0100142E8031392
:102EB0004BB1016851E8031F026821F0100142E89C
:102EC0000313002BDAD101680A68D20606D5002266
:102ED00000920A680092496800910099818D01B0C2
:102EE000FFF7F6B8026852686FF35F2221F8022BF1
:102EF0008162A5E701B0FFF769BC0000B0B50446E8
:102F0000006804F108030ECB0569194325F4405508
:102F10002A4302616269E3691143C268194349F2B5
:102F20000C639A431143C1604169A26921F4407165
:102F300041F20043114340F48062C4F201039A421B
:102F4000416103D1FEF728FB02E000BFFEF710FB52
:102F5000E1694FF69C7563681922C0F6FF75B1F5FB
:102F6000004FA0FB02011FD15A00DB0FFDF728F92B
:102F700048F21F51C5F2EB11A0FB01235A0905F1DC
:102F8000805302FB0300322303EBC000A0FB0101CE
:102F90004FF4F87000EA111000EB0210C1F3421177
:102FA000084421688860B0BD9A009B0FFDF708F9BE
:102FB00048F21F51C5F2EB11A0FB01235A0902FB95
:102FC0000500322303EB0010A0FB0101F02000EA12
:102FD000511000EB0210C1F34311084421688860CE
:102FE000B0BD000040F2C800C2F20000FFF788B890
:102FF000FEE70000BAB047F20005C4F20005FEF794
:103000005BF90DF1680840463021FDF717F90024FF
:1030100043F640001794CDE91544CDE913441994C3
:10302000C4F202000168022641F08051016000688C
:1030300000F08050199019981994286840F4804045
:103040002860286800F480401990199801201A908F
:103050004FF480301B904FF4800021900820229084
:103060004FF4A870CDE92306042025904046209611
:10307000FEF7DEFA0F20CDE913064FF4A0501690AC
:103080004FF48050179013A805211594FEF7BEF950
:10309000FFF79CFCFFF718FDFFF7DAFD40F280090F
:1030A000C2F2000948460021FEF78AFF4846042183
:1030B000FEF786FF48460821FEF782FF40F2080B24
:1030C000C2F2000B9BED011A9FEDF53A9BED000A51
:1030D000B4EE431A9BED022AF1EE10FAC8BFB0EE2F
:1030E000431AB3EE0E3AB4EE431A9FEDEE4AF1EEF8
:1030F00010FAB8BFB0EE431A9FEDEB3AB4EE442A93
:10310000F1EE10FAC8BFB0EE442AB4EE432AF1EE55
:1031100010FAB8BFB0EE432A9FEDE43AB5EE400A8C
:10312000F1EE10FAB8BFB0EE430AB4EE440A9FEDD8
:10313000E03AF1EE10FAC8BFB0EE440A20EE030AFE
:1031400080EE040ABBEE0E3A9FEDDA4A31EE031A26
:103150009FEDD93A21EE041A9FEDD84A81EE031A69
:103160009FEDD73A32EE042A9FEDD64A22EE032A8B
:1031700082EE042AD9F80030BCEEC00A10EE100A24
:1031800040F2C80600F27E40C2F2000658633046A4
:10319000BCEEC10A10EE101A01F2E24199630FF67B
:1031A0005021BCEEC20A10EE102AC832DA63132294
:1031B0006423FFF73DFB0FF64C2130462A2264239F
:1031C000FFF736FB0FF66821304618226423FFF71D
:1031D0002FFB40F2300AC2F2000A9AF800000122E6
:1031E000504400F110013046FFF7C6FA05F5C83526
:1031F000C7E000BF38460FF65C21FDF72AF800282B
:1032000000F06481DBED00AA9FEDAF2A9FEDA51AC7
:103210009BED01FA2AEE820A80EE018ABAEE080AD4
:103220003FEE000A20EE020A80EE019A9BED023A80
:10323000B3EE020A33EE000A20EE020A80EE01BA73
:103240008DED123AB0EE490A00F03AFF39EE0BBAB2
:10325000B0EE40AAB0EE4B0A00F032FFB3EE07DA50
:10326000B3EE01EA20EE0D0A2AEE0E1A31EE00AAA4
:10327000B0EE480A00F024FF20EE0ACAB0EE480A79
:103280008AED01CA00F0C4FF2AEE00AAB0EE490A96
:103290008AED02AA00F0BCFF20EE0E0AB1EE041A7D
:1032A00030EE018AB0EE4B0A00F0B2FF0BF10C07D2
:1032B00020EE0D0AC1CF70EE08CACAED03CAFDF7B1
:1032C000CFF941EC180B3046FDF7CAF941EC190B68
:1032D0003846FDF7C5F941EC1D0B1CEE100AFDF751
:1032E000BFF941EC1B0B1AEE100AFDF7B9F941ECDE
:1032F0001E0B1CEE900AFDF7B3F941EC1C0B1AEE05
:10330000900AFDF7ADF941EC1A0B1FEE100AFDF71C
:10331000A7F99DED120A41EC1F0B10EE100AFDF704
:103320009FF941EC100B44F689728DED100B8DEC7A
:10333000048B8DED04DB8DED06BB8DED08EB8DED83
:103340000ACB8DED0CAB40468021C0F600028DED1E
:103350000EFB00F0A5FC4046FCF78DFF82B240F268
:10336000C800C2F2000041466423FFF761FA8AF800
:10337000014028462021FDF783FF4FF4FA70FDF746
:103380009BFE9AF801000028F3D09AF8100040B193
:103390000AF11006FCF745FF307016F8010F0028FF
:1033A000F8D10AF1100738460FF6A001FCF751FFDB
:1033B00000283FF41FAF0020C4F23430CBF80000E7
:1033C00041F2C430C4F2C62047F61661CBF80400BF
:1033D000D9F80000C4F21C31CBF8081041F2883152
:1033E000416340F64F51816340F6A441C16349F205
:1033F0002A30C4F22000CAF8040048F25240C3F256
:103400006B40CAF8080049F60A40CBF64570CAF886
:103410000C00DBE90307DBF81460FDF721F941EC50
:10342000180B3846FDF71CF941EC190B3046FDF737
:1034300017F941EC100B41F265204FF08041C4F2C6
:103440000400CDE9070147F28A00C3F68D60CDE99B
:1034500009014BF28130CBF6E870CDE90B0448F25C
:103460000000C4F266000D904FF000400E904CF248
:103470007820C4F258000F904FF04040109048F66A
:10348000C270C4F2630044F66C720691119040461B
:103490008021C0F600028DEC048B8DED040B58E703
:1034A00000001643000034430000C8420000000042
:1034B00000A0704500606A450000F0420000C8C2EC
:1034C000006086450000A042DB0F494038460FF2FD
:1034D0009071FCF7BEFE002800F0208138460FF204
:1034E000887113AA19AB18AF0097FCF7EDFE0328FB
:1034F00040F06281DDED13AAF5EE40AAF1EE10FA7C
:10350000C0F264811FED190AF4EE40AAF1EE10FA40
:1035100000F35C819DED19FAB3EE0E0AB4EE40FAA9
:10352000F1EE10FAC0F252811FED230AB4EE40FA18
:10353000F1EE10FA00F34A819DED18CA1FED260A3C
:10354000B4EE40CAF1EE10FAC0F240811FED2B0A32
:10355000B4EE40CAF1EE10FA00F338811FED301AD4
:10356000B0EE4F0AB4EE41FAF1EE10FAC8BFB0EE79
:10357000410AB3EE0E1A1FED353AB4EE410A1FEDC3
:10358000362AF1EE10FAB8BFB0EE410AB4EE43CAE3
:10359000B0EE4C1AF1EE10FAC8BFB0EE431AB4EE1A
:1035A000421AF1EE10FAB8BFB0EE421AF5EE40AA98
:1035B000B0EE6A2A1FED434AF1EE10FAB8BFB0EE42
:1035C000442AB4EE432A1FED464AF1EE10FAC8BF72
:1035D000B0EE432A22EE042A82EE032ABBEE0E4A04
:1035E00030EE040A1FED4D4AD9F8003020EE040AEF
:1035F0001FED4F4ACBED00AA80EE040A1FED514AA1
:103600008BED01FA31EE041A1FED534A8BED02CA1D
:1036100021EE041A1FED554ABCEEC22A81EE041AAF
:103620001FED574A12EE100A2AEE842A82EE038A10
:10363000BAEE082A3FEE022A22EE042A82EE039A0C
:10364000BCEEC00AB3EE022A10EE101A3CEE022ABB
:1036500022EE042ABCEEC10A10EE102A00F27E40CF
:1036600001F2E241C83282EE03BA58639963B0EEC8
:10367000490ADA6300F024FD39EE0BBAB0EE40AA35
:10368000B0EE4B0A00F01CFDB3EE07DAB3EE01EA30
:1036900020EE0D0A2AEE0E1A31EE00AAB0EE480A0C
:1036A00000F00EFD20EE0A0A8AED010AB0EE480A8B
:1036B00000F0AEFD2AEE000A8AED020AB0EE490AD9
:1036C00000F0A6FD20EE0E0AB1EE041A30EE018ADB
:1036D000B0EE4B0A00F09CFD20EE0D0A30EE080A19
:1036E0001AEE900A8AED030AFCF7BAFF41EC180BB8
:1036F0001FEE100AFCF7B4FF41EC190B1CEE100A88
:10370000FCF7AEFF44F6257241EC100B8DEC048BF8
:1037100040468021C0F60002BFE600BFDBF814007F
:103720009BED038A9BED049A45F2140118903846EC
:10373000C0F600014E468DED138A8DED199AFCF707
:10374000A1FD002813AC4FD0814609E045F21401D9
:103750000020C0F60001FCF795FD814600283FD00F
:1037600099F8000058280CD145F2170109F1010021
:10377000C0F600012246FCF7A7FD0128E6D099F823
:10378000000059280CD145F2170109F10100C0F6DB
:10379000000119AAFCF798FD0128D7D099F800007C
:1037A0005A28D3D145F2170109F10100C0F60001F2
:1037B00018AAFCF789FDC9E740F2C80044F6E97190
:1037C000C2F20000C0F600012A22CDE540F2C80096
:1037D000C2F200000FF2A0411722C5E5000010421E
:1037E0009DED138A9DED199A9BED030AB146B4EE47
:1037F000408AF1EE10FA00F0C781DDED18AA00242E
:10380000B5EE408AB9EE040AF1EE10FA3AEE80AA5B
:103810008BED038A8BED049ACBED05AA22D1B5EE90
:10382000409AF1EE10FA1DD1B5EE40AAF1EE10FA71
:1038300018D11398FCF714FF41EC180B1998FCF7FA
:103840000FFF41EC190B1AEE900AFCF709FF44F642
:10385000F56241EC100B8DEC048B40468021C0F6E4
:1038600000021AE629EE090A28EE081A31EE00CA0B
:103870002AEE0A0A30EE0CDAB1EECD0AB1EE041AE5
:10388000B4EE410AF1EE10FAD3DB1FED2C1AB4EEC0
:10389000410AF1EE10FACCDCB0EE490AF0EE480A2B
:1038A00000F0B8FA9FEDC91AB7EE002A20EE010A1F
:1038B0009FEDEA1A80EE01BA9FEDF60A9FEDF61A27
:1038C0003DEE000A30EE010A9FEDF41A80EE010A87
:1038D0009FEDEF1AB5EE40BA3BEE011AF1EE10FA89
:1038E000B8BFB0EE41BA8BED00BAB0EEC01AB4EE7C
:1038F000421AF1EE10FA9CDCB1EECC8A00F0FEF92F
:103900009FEDB2DA9FEDD5EA20EE0D0A80EE0ECAE9
:10391000B0EE4A0AF0EE480A00F07CFA2CEE0E1ADD
:1039200081EE0D8AB0EE409AB0EE480A00F070FCCD
:10393000B3EE07FA20EE0FAAB0EE480A00F0C0FB83
:1039400020EE0F0AB3EE011A70EE010AB0EE4A0A39
:1039500000F060FA39EE000A20EE0D0A80EE0E0A41
:10396000B2EE081AB5EE40BAF1EE10FA30EE011AD6
:10397000BBEE020A3CEE000A8BED011A8BED020A47
:10398000FFF657AF9FED912AB4EE42BAF1EE10FA6E
:103990003FF74FAFB3EE0E2AB4EE421AF1EE10FA33
:1039A000FFF647AF9FED882AB4EE421AF1EE10FA07
:1039B0003FF73FAF9FED862AB4EE420AF1EE10FAD0
:1039C000FFF637AF9FED812AB4EE420AF1EE10FA0E
:1039D0003FF72FAF9FED7C3AB0EE412AB4EE431A89
:1039E000F1EE10FAC8BFB0EE432AB3EE0E3A9FEDE7
:1039F000776AB4EE432AF1EE10FAB8BFB0EE432A6C
:103A0000B4EE460AB0EE403A9FED715AF1EE10FA6C
:103A1000C8BFB0EE463A9BED004AB4EE453AF1EE2F
:103A200010FAB8BFB0EE453AB5EE404AB0EE445A8F
:103A30009FED687AF1EE10FAB8BFB0EE475AB4EED7
:103A4000465A9FED657AF1EE10FAC8BFB0EE465ABD
:103A500025EE075ABBEE0E7A32EE072A9FED5F7A0B
:103A600085EE065A22EE072A9FED5D7AD9F80030DE
:103A700082EE072A9FED5B7A33EE073A9FED5A7A82
:103A800023EE073A9FED597A83EE073A9FED737A5A
:103A900024EE074A84EE068ABAEE084A31EE041A8A
:103AA00021EE071A81EE069AB3EE021A30EE010AF1
:103AB00020EE070A80EE06BABCEEC50A10EE100A28
:103AC000BCEEC20A10EE101ABCEEC30A10EE102AA9
:103AD00000F27E4001F2E241C832B0EE490A58637A
:103AE0009963DA6300F0ECFA39EE0BBAB0EE40AA53
:103AF000B0EE4B0A00F0E4FAB3EE07CAB3EE01DA17
:103B000020EE0C0A2AEE0D1A31EE00AAB0EE480A99
:103B100000F0D6FA20EE0A0A8AED010AB0EE480A51
:103B200000F076FB2AEE000A8AED020AB0EE490A9E
:103B300000F06EFB20EE0D0AB1EE041A30EE018AA1
:103B4000B0EE4B0A00F064FB20EE0C0A139830EE46
:103B5000080A8AED030AFCF783FD41EC180B19985B
:103B6000FCF77EFD41EC190B1AEE900AFCF778FD8C
:103B700044F64A7241EC100B8DEC048B40468021D8
:103B8000C0F6000289E400BF9BED040ADDED18AA2F
:103B9000B4EE409AF1EE10FA4FF000047FF430AE2C
:103BA0009BED050AF4EE40AAF1EE10FA7FF428AE80
:103BB00040F2C80044F6DC61C2F20000C0F6000129
:103BC0001822FFF7D1BB00BF0000164300003443AA
:103BD0000000C8420000000000A0704500606A4577
:103BE0000000F0420000C8C2006086450000A0420C
:103BF000526F626F7469632041726D205265616417
:103C0000790D0A00436F6D6D616E64733A20582C14
:103C1000592C5A207C20484F4D45207C20414E474E
:103C20004C4553207C20535441545553720A000094
:103C30004578616D706C653A2058312E35205932C7
:103C40002E30205A2D310D0A00000000484F4D45FE
:103C5000000000005354415455530000DB0F49400D
:103C6000414E474C45530000414E474C455320259B
:103C700066202566202566004552524F523A20495B
:103C80006E76616C696420616E676C65730D0A0005
:103C90000000B443008090C3004004C4008043444B
:103CA0000FB47CB50C0009AD01D0611E00E000210D
:103CB000CDE90001064B6A462946089800F010FD40
:103CC000002C02D0009A002111707CBC5DF814FB1E
:103CD0000F4E00084100080218BF04200A0E18BF4A
:103CE00040F001004FF07F4232EA010108BF40F08E
:103CF0000200012808BF05207047000010B510EE33
:103D0000104A4FF01A402DED028B00EB4400B0F149
:103D1000C85F4AD84FF0FC40B0EB440F22D2B0EE5F
:103D2000C00AF7EE000A30EEC00AF6EE000A20EEF6
:103D3000208A18EE100A01F075F800EE100A14F04F
:103D4000004F1DBF9FED281ADFED280AB1EE400A93
:103D50009FED271A08BFF0EE410AF8EE001A20EE98
:103D6000210A05E020EE008A9FED221ADFED220AEB
:103D7000DFED221A9FED222A70EEC00A20EE080A1B
:103D800008EE212ADFED1F1A48EE021A9FED1E2AC7
:103D900008EE212ADFED1D1A48EE021ABDEC028B57
:103DA00040EE610A30EE810A10BD4FF0CC40B0EB1E
:103DB000440F82BF9FED160ABDEC028B10BD4FF081
:103DC0007F40B0EB440F05D2BDEC028BBDE8104044
:103DD00000F0E6BA012000F0B3FBBDEC028BBDE8B9
:103DE000104000F0E3BA00000000494022AA7D3AEA
:103DF000000000000000C93F22AAFD3924FE1C3D3E
:103E0000C78AD83C1E67383D1B93993DAFAA2A3E0E
:103E1000DB0FC93F70B54FF068422DED048BF0EE1B
:103E2000408A18EE900AB0EE608A18EE101A02EB83
:103E30004003B3F1654F3CBF02EB4102B2F1654F65
:103E40007DD200BFC0F3C753C1F3C7529A1A1B2AD1
:103E500009DD10F0004F14BF9FED830A9FED830A28
:103E6000BDEC048B70BD12F11A0F36DA11F0004F61
:103E700009D010F0004F0CBF9FED7D0A9FED7D0A29
:103E8000BDEC048B70BD88EE889A19EE100AFFF71E
:103E900021FF042808BF00F091FA18EE900AFFF7FE
:103EA00019FF054618EE100AFFF714FF044619EE35
:103EB000100AFFF70FFF042D18BF052D08D1042CA1
:103EC00018BF052C04D1002804BF022000F038FBE5
:103ED000B0EE490ABDEC048B70BD4200B2EB410F5D
:103EE0003AD910F0004F19BFDFED630A9FED630A66
:103EF000DFED630A9FED630AB0EE481A0A46B1EEA1
:103F0000688A80F00041F0EE418A10460A1A520099
:103F1000B2F1807F34D2484010F0004FDFED5A1AE2
:103F20009FED5A2A1DBFBEEE001A70EEE10A30EE78
:103F3000420AB6EE001A08BF70EEA10A00E040E0A7
:103F400008BF30EE020AB0EE682A01EE482A08EEF9
:103F5000818AC2EE081A15E011F0004F04BF9FEDF0
:103F60004C0AF0EE400AD1D010F0004F19BFDFED3F
:103F7000490A9FED490ADFED490A9FED490AC5E765
:103F8000C8EE881A21EEA11A9FED462ADFED462AD7
:103F900041EE022A9FED452A01EE222ADFED442A56
:103FA00041EE022A9FED432ABDEC048B01EE222A4A
:103FB00021EE811A01EE020A30EE210A30EE200ACB
:103FC00070BD4FF07F42B2EB400F28BFB2EB410F04
:103FD00009D2F0EE480AB0EE680ABDEC048BBDE8E9
:103FE000704000F0E0B940EA01035B0008BF41F017
:103FF000FF410BD0B2EB400F08BFB2EB410F08D12D
:1040000020F0804008EE900A21F0804108EE101A5E
:1040100018E7B2EB400F12BF5FEA410340F0FF40E8
:1040200001F000413FF40EAFB2EB410F12BF5FEA67
:10403000400200F0004041F0FF413FF403AF4A006E
:1040400092EA40033FF5FEAE002AACBF9FED1A0A8C
:104050009FED1A0A68EE808A28EE008A18EE900A10
:1040600018EE101AEEE60000DB0FC9BFDB0FC93FE8
:10407000DB0F4940DB0F49C00000C9BF22AAFDB9D0
:104080000000C93F22AAFD390060ED3EC30ACE37C9
:1040900000000000000049C022AA7DBA000049408B
:1040A00022AA7D3A2DAD65BD8FB8D53D0FB511BEA5
:1040B00061C84C3EA8AAAABE0000804F0000802F15
:1040C00010EE101A08B5444A6846B2EB410F28D9E1
:1040D0004FF0E640B0EB410F94BF00204FF0FF30AF
:1040E00000900098002861DB60EE000A10F0010FDC
:1040F00045D010F0020FDFED391A9FED391A00EEAE
:10410000A11ADFED381A40EE811A21EEA01AF0EE66
:10411000400A40EE010A08BFF1EE600AB0EE600A04
:1041200008BD314B21F0004293423CD911F0004FC1
:10413000DFED2E0A20EE201ADFED2D0A19BF31EE39
:10414000601A71EE200A31EE201A71EE600ABDEE9F
:10415000E01A11EE100A9FED271A00F0030000EE9E
:10416000C10A9FED251A009000EEC10A9FED231AA7
:1041700000EEC10A9FED221A00EEC10AB1E79FEDE1
:10418000211A9FED210A10F0020F00EE810A9FED27
:104190001F1A00EE801AB7EE000A00EE810A18BF5F
:1041A000B1EE400A08BD00F011F99AE710EE100ACE
:1041B0004000B0F17F4F3CBFB7EE000A08BD07D109
:1041C0004FF0010000F0BCF9BDE8084000F0EEB887
:1041D000BDE8084000F0E4B8B61F927E336D4CB9DC
:1041E000DA82083CA0AA2ABE490E494683F9223F3A
:1041F0000000004B0000C93F00A0FD390020A233A1
:104200001A61342CB93AB2BACA9F2A3DDDFFFFBE0B
:1042100000B510EE101A2DED028B81B0524A68469F
:10422000B2EB410F2ED94FF0E640B0EB410F94BFF7
:1042300000204FF0FF3000900098B0EE408A002838
:104240006ADB10F0010F4BD068EE080A9FED471AA9
:104250009FED470A00EE810A9FED461A10F0020F0B
:1042600000EE801AB7EE000A00EE810A02BF01B02C
:10427000BDEC028B00BD00BF01B0B1EE400ABDEC49
:10428000028B00BD3C4B21F00042934241D911F01A
:10429000004FDFED3A0A20EE201ADFED390A19BF90
:1042A00031EE601A71EE200A31EE201A71EE600ACA
:1042B000BDEEE01A11EE100A9FED321A00F0030075
:1042C00000EEC10A9FED301A009000EEC10A9FED8A
:1042D0002F1A00EEC10A9FED2E1A00EEC10AABE7BD
:1042E00028EE080A9FED2B1ADFED2B0A10F0020FC3
:1042F00040EE010A9FED291A00EE201A61EE000A35
:10430000B0EE480A08EE200AB6D101B0BDEC028B2F
:1043100000BD00F05BF88FE718EE100A4000B0F126
:104320007F4F0DD218EE100AFFF7D4FC042808BF07
:1043300000F044F8B0EE480A01B0BDEC028B00BDBD
:1043400009D1012000F0FCF801B0BDEC028B5DF852
:1043500004EB00F02BB801B0B0EE480ABDEC028BC4
:104360005DF804EB00F01CB8B61F927EB93AB2BA01
:10437000CA9F2A3DDDFFFFBE490E494683F9223F11
:104380000000004B0000C93F00A0FD390020A2330F
:104390001A61342C336D4CB9DA82083CA0AA2ABECB
:1043A00030EE000A704730EE200A7047DFED020A57
:1043B00080EEA00A70470000000000009FED020A96
:1043C00020EE000A70470000000000102DE9F00107
:1043D0004FF07F42B2EB410F9FBF4FF0FF310160C2
:1043E000BDE8F00170474FF0004242EA0123C1F3FB
:1043F000C752783A551112F01F0C434CCCF12006ED
:104400007C44C1F3C752A2F178024FEA621204EB76
:10441000820254F8254008BFD2E9015612D05568EF
:1044200004FA0CF425FA06F73C43976805FA0CF5F4
:1044300027FA06F8D26807FA0CFCF24045EA0805AC
:104440004CEA0206A4FB034CA5FB0352A6FB036344
:104450001D449D4234BF012600261319334416B172
:10446000934202D903E0934201D2012200E00022EC
:10447000624402F1200C9206DC0C42EA443200EE67
:10448000102A5B03DFED210AF8EEC01A00EE103AA5
:104490004FEA9C1C11F0004FB8EE400AC0F800C073
:1044A00020EE201A00EE105ADFED190AB8EE400A8D
:1044B00020EE200A71EE810A70EE800A10EE902A3A
:1044C00002F500626FF30B0200EE902A70EEE11A23
:1044D00031EEC11ADFED101A30EE411A9FED0D0AD0
:1044E00020EE800A01EE210A9FED0C1A00EE810AEF
:1044F00004BFBDE8F0017047CCF180510160BDE818
:10450000F001B1EE400A7047600A0000000000367A
:104510000000802C22AAFD29DB0FC92F0000C92F23
:1045200002E008C8121F08C1002AFAD1704770477C
:10453000002001E001C1121F002AFBD170470000DA
:104540000149086070470000040000202DE9FF5F6A
:1045500082B00021DDE90430020DDDF840B00343F4
:1045600018D044F61050A2F2FF32424315141198AD
:1045700001281FD0A5EB0B00401C5FEA000A4FF09A
:1045800000064E4FDFF83891B046504615D5CAF1B7
:10459000000413E0119801244AA3012801D16FEA15
:1045A0000B010298119AC0E90031C0E9024206B03D
:1045B000BDE8F09FCBF10000DFE704460021404A50
:1045C000491842EB0450CDE9001012E0E00707D093
:1045D00032463B4640464946FCF765F980468946E7
:1045E00032463B4610461946FCF75DF906460F4633
:1045F0006410002CEAD1DDE90401DDE90023BAF101
:10460000000F06DAFCF74FF942464B46FCF74BF930
:1046100005E0FCF7BAF942464B46FCF7B6F904460A
:104620000E460022284BFCF743FA03D84FF0FF3028
:10463000014607E00022254B20463146FCF78CF866
:10464000FCF71EFA102409E0002C0ADB0A220023E2
:10465000FBF7B6FD039B30321A55641E50EA010287
:10466000F2D1641C039AC4F111031444119A012A73
:1046700003D0012208430DD10AE0084304D00020F2
:104680004FF0110B119072E7A3EB0B056D1E0DE0BF
:104690005B4504DD4FF0000205F1010504E003DA9B
:1046A0004FF00002A5F10105002AECD00298119903
:1046B000C0E90231C0E9004579E70000000014407C
:1046C0000000F03F300000000000F0430000E03F39
:1046D00030380A2801D201207047002070470000BE
:1046E0002DE9FF4F95B09B468946064600250FE20F
:1046F000252877D100242746F84A0121059400E0B7
:10470000044316F8013F203B01FA03F01042F7D1B1
:1047100030782A2811D06FF02F033078A0F13002C2
:10472000092A16D8059A44F0020402EB820203EB30
:1047300042021044761C0590EFE759F8042B0592CD
:10474000002A03DA504244F40054059044F0020475
:10475000761C30782E2816D116F8010F44F0040488
:104760002A280DD06FF02F023078A0F13003092BEA
:1047700009D807EB870302EB4303C718761CF3E75E
:1047800059F8047B761C30786C280FD006DC4C2856
:1047900017D068280DD06A2814D104E0742810D0EE
:1047A0007A280FD10DE044F400140AE044F4801498
:1047B00001E044F440147278824202D104F580147E
:1047C000761C761C307866280BD013DC582877D0FE
:1047D00009DC002875D04528F6D04628F4D04728B3
:1047E0001AD19DE118E0632835D0642879D0652876
:1047F00012D195E1702873D008DC6728F1D06928C0
:104800006FD06E280DD06F2806D1B5E073282CD05C
:10481000752875D0782874D05A46179990476D1C22
:1048200075E1C4F30250022809D003280DD0D9F84D
:10483000001004280DD00D6009F1040967E1D9F8D2
:104840000010EA17C1E90052F6E7D9F800100D8010
:10485000F2E70D70F0E719F8041B8DF80010002046
:104860008DF80100EA46012003E059F804AB4FF04F
:10487000FF3061074FF0000102D40DE008F10101A3
:104880008846B9420FDA8045F8DB1AF8081000298B
:10489000F4D108E008F1010188468142FADB1AF8F8
:1048A00008100029F6D105985B46A0EB08072146C1
:1048B0003846179A00F094FA284400EB080507E000
:1048C0004DE029E10DE01AF8010B5A46179990477F
:1048D000B8F10108F7D25B4621463846179A13E132
:1048E00042E00A220092C4F302524FF0000A022A68
:1048F00008D059F804CB032A4FEAEC710AD00DE036
:1049000029E02AE009F1070121F00702F2E802C1DB
:10491000914609E00FFA8CFC4FEAEC71042A03D1AE
:104920004FFA8CFC4FEAEC71002907DA0A460021A5
:10493000DCF1000C61EB02012D2202E0220504D51E
:104940002B228DF80420012203E0E20701D020226F
:10495000F7E7904659E00A2102E010220DE010210D
:104960004FF0000A00910BE010224FF0000A44F0D3
:1049700004040827009203E008224FF0000A009286
:10498000C4F30252022A05D059F804CB0021032AAD
:1049900008D009E009F1070121F00702F2E802C19D
:1049A000914605E01FFA8CFC042A01D10CF0FF0CA3
:1049B0004FF00008220728D5702806D0009B83F00E
:1049C000100353EA0A0305D00EE040228DF80420BC
:1049D000012208E05CEA010206D030228DF80420B2
:1049E0008DF8050002229046009B83F0080353EAED
:1049F0000A030AD15CEA010201D1620705D530221F
:104A00008DF804204FF001087F1E582804D034A0F0
:104A100003900EA802900DE036A0F9E753466046D9
:104A2000009AFBF7CDFB84460398825C0298401EF7
:104A3000029002705CEA0100F0D1029806A9081AFF
:104A400000F1200A600702D524F4803400E0012739
:104A5000574502DDA7EB0A0000E0002000EB0A0149
:104A6000009005984144401A0590E00306D45B4647
:104A70002146179A059800F0B3F90544002706E08F
:104A800001A85A46C05D179990476D1C7F1C474589
:104A9000F6DBE0030CD55B462146179A059800F03B
:104AA0009FF9054404E030205A46179990476D1C41
:104AB0000099481E00900029F5DC08E00298029950
:104AC0005A460078491C0291179990476D1CBAF11B
:104AD0000001AAF1010AF1DC65E1000009280100EA
:104AE0003031323334353637383961626364656664
:104AF0000000000030313233343536373839414226
:104B0000434445460000000000F058F90544761C77
:104B1000307800287FF4ECAD19B02846BDE8F08F5E
:104B2000620700D4062709F1070222F0070CFCE80F
:104B30000223E14603F000485FEA080C02D00FF2BE
:104B4000702C0DE05FEA045C02D50FF2682C07E0E0
:104B50005FEAC47C02D00FF2602C01E0AFF2700C6F
:104B60004FF0FF3823F00043CDF850C065280CD03B
:104B700006DC452809D046281DD047283DD13DE018
:104B8000662818D067287ED138E00021112F01DB7C
:104B9000112000E0781CCDE9000106A90EA8FFF75E
:104BA000D5FCDDE90F010E9A03910021009207F177
:104BB000010A04914DE04FF000400097CDE901104B
:104BC00006A90EA8FFF7C2FCDDE90F0203920E9BB7
:104BD00011990022DDF80CA00093049211B9791C00
:104BE00000EB010AB7EB0A0004D4C0F1FF3007F173
:104BF000010A0490AAEB0700019044E0012F00DABB
:104C000001270021112F01DD112000E03846CDE9F8
:104C1000000106A90EA8FFF799FCDDE90F010E9A25
:104C20000391002104910092BA4621070CD4039904
:104C3000514500DA8A46BAF1010F05DD009AAAF162
:104C40000101515C302908D0B84202DA10F1040F9A
:104C500006DA0121CDE9011015E0AAF10101E9E729
:104C6000002805DC049901440491AAEB000102E04C
:104C7000411C514500DD8A460499401A401C0190B0
:104C80004FF000400290200704D40198504501DB0A
:104C9000CDF8048000208DF84F0002980DF14F07E9
:104CA000B0F1004F25D02B200E9002984FF0020853
:104CB00000280CDA404202902D200E9007E00A21D5
:104CC0000298FBF7E0FC3031029007F8011DB8F1C3
:104CD0000001A8F10108F2DC02980028EFD1791E4A
:104CE0000E980870307800F0200040F0450007F87A
:104CF000020D12A8C01B00F107081498007800B13B
:104D0000012000EB0A01019801EBE0710598414494
:104D1000401A401E0590E00306D45B462146179AD0
:104D2000059800F05DF805441498007818B15A46CB
:104D3000179990476D1CE00324D55B462146179ACE
:104D4000059800F04DF805441CE00498002807DBA6
:104D5000DDE90301884203DD0098405C179901E01A
:104D6000179930205A469047049805F10105401CD8
:104D700004900198401E019004D12E205A461799A4
:104D800090476D1CBAF10001AAF1010ADDDC05E0D3
:104D900017F8010B5A46179990476D1CB8F100019E
:104DA000A8F10108F4DC5B462146179A0598ABE6AA
:104DB0002D0000002B000000200000002DE9F04134
:104DC000044600251E461746880404D405E03946EB
:104DD0002020B0476D1C641EF9D52846BDE8F0813F
:104DE0002DE9F041044600251E469046C80301D532
:104DF000302700E02027880404D505E041463846E6
:104E0000B0476D1C641EF9D52846BDE8F0814A689C
:104E1000002A06D00A68531C0B6010704868401EB8
:104E20004860704710B500EE100A2DED028BB1EE10
:104E3000C08A18EE100A20F00040C0F1FF40C00FF9
:104E40000AD010EE100A20F00040C0F1FF40C00F61
:104E500004BF0120FFF774FB18EE100ABDEC028BB3
:104E600010BD0000000000006E83F9A22915444E19
:104E7000D15727FCC0DD34F5999562DB4190433C66
:104E8000AB6351FEDDDDDDDDDCBBBBDDDDDDDDDDAE
:104E9000DDDDDDDD98888888888888887777777772
:104EA000778888888555555666666666666666663E
:104EB00066688888833333322222222222222222E9
:104EC0002228888D00000000000000000102030479
:104ED0000607080900000000010203044F4B3A20B6
:104EE000506F736974696F6E20756E6368616E6769
:104EF00065640D0A004552524F523A20506F736953
:104F000074696F6E2058252E31662059252E316622
:104F1000205A252E316620756E7265616368616264
:104F20006C650D0A004F4B3A20416E676C6573202B
:104F300073657420746F20252E31662C20252E3148
:104F4000662C20252E31660D0A004F4B3A204D6FFE
:104F500076696E6720746F2058252E31662059259A
:104F60002E3166205A252E31660D0A004F4B3A200D
:104F70004D6F76696E6720746F20686F6D65207065
:104F80006F736974696F6E0D0A5461726765743A64
:104F90002058252E31662059252E3166205A252E7F
:104FA00031660D0A41637475616C3A2058252E31C3
:104FB000662059252E3166205A252E31660D0A416C
:104FC0006E676C65733A2042617365252E316620E9
:104FD00053686F756C646572252E316620456C626E
:104FE0006F77252E31660D0A004552524F523A20F6
:104FF00055736167653A20414E474C4553206261C5
:1050000073652073686F756C64657220656C626F80
:10501000770D0A00202C0025660000004050000893
:1050200000000020300000002045000870500008FB
:1050300030000020E80400003045000800000000B7
:1050400000000000000000000000B4420000B44274
:10505000000025430000004000000000000080BF69
:1050600001000000100000000024F4000000000017
:040000050800018965
:00000001FF
